:020000040800F2
:10000000001800205D2800084D2700084F27000831
:1000100000000000000000000000000000000000E0
:10002000000000000000000000000000651E000845
:100030000000000000000000D11E0008151F00088D
:10004000DD280008DD280008DD280008DD2800087C
:10005000DD280008DD280008DD280008DD2800086C
:10006000DD280008DD280008DD280008DD2800085C
:10007000DD280008DD280008DD280008DD2800084C
:10008000DD2800080000000000000000DD28000856
:10009000000000005127000861270008DD28000843
:1000A00000000000DD280008DD280008DD28000829
:1000B000DD28000800000000DD280008DD28000819
:1000C00010B5064C2378002B07D1054B002B02D02E
:1000D000044800E000BF0123237010BD740000201D
:1000E00000000000083B0008044B10B5002B03D0B3
:1000F0000349044800E000BF10BDC04600000000F6
:1001000078000020083B0008002243088B4274D38B
:1001100003098B425FD3030A8B4244D3030B8B4208
:1001200028D3030C8B420DD3FF22090212BA030C11
:100130008B4202D31212090265D0030B8B4219D3F2
:1001400000E0090AC30B8B4201D3CB03C01A524112
:10015000830B8B4201D38B03C01A5241430B8B425A
:1001600001D34B03C01A5241030B8B4201D30B0343
:10017000C01A5241C30A8B4201D3CB02C01A52416A
:10018000830A8B4201D38B02C01A5241430A8B422D
:1001900001D34B02C01A5241030A8B4201D30B0216
:1001A000C01A5241CDD2C3098B4201D3CB01C01A30
:1001B000524183098B4201D38B01C01A524143093A
:1001C0008B4201D34B01C01A524103098B4201D328
:1001D0000B01C01A5241C3088B4201D3CB00C01A95
:1001E000524183088B4201D38B00C01A524143080D
:1001F0008B4201D34B00C01A5241411A00D2014632
:10020000524110467047FFE701B5002000F006F8A4
:1002100002BDC0460029F7D076E770477047C04658
:100220000023C25C0133002AFBD1581E7047000036
:1002300010B5064A136810210B431360002002F02A
:1002400049FA02F081F9002010BDC04600200240AA
:10025000024A1368013313607047C046EC0D00205A
:10026000014B18687047C046EC0D002070B500289F
:1002700011DB8408134DC034A400625903231840D5
:10028000C000FC331E008640B24389010B4083400E
:100290001343635170BDC0B20F220240083A920866
:1002A00006329200084BD3185D6803242040C0003A
:1002B000FF2214008440A54389010A4082402A435A
:1002C0005A60E7E700E100E000ED00E01F2318407E
:1002D0001E3B8340014A13607047C04600E100E0C6
:1002E000F0B5C64600B582B000236EE084683440A5
:1002F000A446CC68BC406246144384604468AC4366
:100300004A681209012515409D4025434560C4688F
:1003100026408C68BC403443C4604A68D20053D540
:100320004A4DAE6901242643AE61AD692C4001946B
:10033000019C9C08A51CAD00454EAF5903251D40EE
:10034000AD000F26AE40B7439026F605B04275D0FB
:10035000404EB04274D0404EB0426DD00526AE4003
:1003600035003D430234A400394EA5513B4C25686D
:100370004246D4432E0026404A68D20302D5424664
:1003800015432E00354D2E606D682E0026404A68BC
:10039000920302D5424615432E00304D6E60AD6883
:1003A0002E0026404A68D20202D5424615432E004E
:1003B0002A4DAE60ED682C404A68920202D5424652
:1003C0002A431400254AD46001330A681400DC4033
:1003D00038D001259D402A409046F5D04C68022C2B
:1003E00001D0122C0ED1DC080834A40027580726AF
:1003F0001E40B6000F22B24097430A69B240160071
:100400003E43265002685F0003242600BE40F643A8
:10041000324094464A681440BC406246144304602B
:100420004C68621E012A00D860E7112C00D15DE7FC
:10043000122C00D06BE759E7022690E700268EE7E2
:1004400001268CE702B004BC9046F0BD00100240CB
:10045000000001400004004800080048000401407A
:10046000002A01D1816270478161FCE743695940EC
:100470004161704770B582B004000368DB072BD57B
:10048000B34B5A680C231340042B1DD0B04B5A6851
:100490000C231340082B0ED06368012B41D0002B96
:1004A00056D1AB4B1A68AB490A401A601A68AA4980
:1004B0000A401A603BE0A64B5B68C0225202134020
:1004C000802252029342E7D1A14B1B689B0303D5C4
:1004D0006368002B00D139E223689B0778D59C4BD9
:1004E0005B680C221A4262D0994B5A680C23134065
:1004F000082B53D0E368002B00D18BE0944A13689B
:1005000001210B431360FFF7ABFE0500904B1B6806
:100510009B0776D4FFF7A4FE401B0228F6D90320E0
:1005200017E28B4A116880235B020B4313606368F8
:10053000002B25D0FFF794FE0500854B1B689B031D
:10054000CAD4FFF78DFE401B6428F6D9032000E2D1
:10055000052B09D07E4B1A687E490A401A601A683A
:100560007D490A401A60E2E7794B19688022D2027D
:100570000A431A601968802252020A431A60D6E7B9
:10058000FFF76EFE0500724B1B689B03A4D5FFF7B7
:1005900067FE401B6428F6D90320DAE16C4B5B68E8
:1005A000C02252021340802212029342A2D1684B11
:1005B0001B689B0704D5E368012B01D00120C8E12B
:1005C00063490B68F82293432269D20013430B60FE
:1005D00023681B0744D5E369002B2ED05C4A536A7D
:1005E00001210B435362FFF73BFE0500584B5B6A4A
:1005F0009B0735D4FFF734FE401B0228F6D90320B1
:10060000A7E153490B68F82293432269D2001343B0
:100610000B60DDE74E4A136801218B431360FFF73F
:100620001FFE05004A4B1B689B07D1D5FFF718FE3C
:10063000401B0228F6D903208BE1454A536A012169
:100640008B435362FFF70CFE0500414B5B6A9B072F
:1006500006D5FFF705FE401B0228F6D9032078E1F6
:1006600023685B0700D47FE0394BDB69DB001DD4D6
:10067000374AD169802040050143D161D3690340E5
:100680000193019B0125354B1B68DB0510D5A36841
:10069000012B21D0002B36D12D4B1A6A01218A4320
:1006A0001A621A6A03318A431A621AE00025EAE7DD
:1006B0002A4A116880235B000B431360FFF7D0FDCB
:1006C0000600264B1B68DB05E1D4FFF7C9FD801B44
:1006D0006428F6D903203CE11D4A136A01210B432B
:1006E0001362A368002B24D0FFF7BAFD0600184B55
:1006F0001B6A9B0736D4FFF7B3FD801B184B98424B
:10070000F5D9032025E1052B09D0114B1A6A0121E7
:100710008A431A621A6A03318A431A62E1E70C4B70
:100720001A6A04210A431A621A6A03390A431A62CE
:10073000D7E7FFF795FD0600054B1B6A9B0711D510
:10074000FFF78EFD801B064B9842F5D9032000E190
:1007500000100240FFFFFEFFFFFFFBFF00700040A4
:1007600088130000012D3AD02368DB0610D5636999
:10077000012B3AD0053358D1784A536B04218B436F
:100780005363536BF4318B43A169C9000B4353632B
:1007900023689B0600D482E0704B5A680C231340F8
:1007A0000C2B60D06D4B5A680C231340082B53D090
:1007B000236A002B60D0694A516B80235B020B4394
:1007C0005363FFF74DFD0500644B5B6BDB0366D4A1
:1007D000FFF746FD401B0228F6D90320B9E05F4A27
:1007E000D3695F490B40D361BEE75C4B5A6B042170
:1007F0000A435A635A6B03390A435A63FFF730FDC1
:100800000500564B5B6B9B0706D4FFF729FD401B89
:100810000228F6D903209CE050494B6BF822934301
:10082000A269D20013434B63B2E74C4B5A6B0421CD
:100830000A435A635A6B03398A435A63FFF710FD20
:100840000500464B5B6B9B07A2D5FFF709FD401BDC
:100850000228F6D903207CE0404B5B68C02252029C
:1008600013409342A4D13D4B5B6BDB0317D5236A46
:10087000012B14D001206CE0384A536B39490B40EE
:100880005363FFF7EDFC0500344B5B6BDB0306D5D0
:10089000FFF7E6FC401B0228F6D9032059E0636A03
:1008A000002B55D02D4A51680C220A40082A52D0FC
:1008B000022B12D0294A13682B490B401360FFF713
:1008C000CFFC0400254B1B689B013DD5FFF7C8FCFE
:1008D000001B0228F6D903203BE0204A1368224976
:1008E0000B401360FFF7BCFC05001C4B1B689B0111
:1008F00006D5FFF7B5FC401B0228F6D9032028E0F7
:10090000164BDA6A0F218A43216B0A43DA625A686E
:1009100016490A40E16AA06A01430A435A6019680D
:10092000802252040A431A60FFF79AFC04000B4B22
:100930001B689B0106D4FFF793FC001B0228F6D925
:10094000032006E0002004E0002002E0012000E097
:10095000002002B070BD0120FBE7C046001002403D
:10096000FFFFFFEFFFFFFEFFFFFFFFFEFF7FC2FF66
:1009700030B589B004AA1F4B180032C832C211002A
:1009800002680A606A46103313CB13C21B681360F7
:10099000194B5A680C231340082B04D00C2B26D07B
:1009A000164809B030BD910C0F23194004A8445CCF
:1009B0001149C96A0B406946C95CC0235B021A40F1
:1009C00080235B029A4208D0C0235B029A4209D07E
:1009D0000A48FFF799FB6043E3E70848FFF794FBF9
:1009E0006043DEE70648FFF78FFB6043D9E7044822
:1009F000D7E7C046203B00080010024000127A00F2
:100A0000006CDC0270B505000C00594B1A6801231C
:100A100013408B420BD256490B6801229343234368
:100A20000B600B681A40A24201D0012070BD2B68F8
:100A30009B0706D54F4A5368F0218B43A9680B43A7
:100A400053602B68DB0763D56B68012B09D0022B41
:100A500028D0032B2CD0474A1268920705D40120D6
:100A6000E4E7444A126892037FD542494A6803206A
:100A7000824313434B60FFF7F3FB06006B68012BC7
:100A80001CD0022B28D0032B34D03A4B5B680C22AD
:100A90001A423DD0FFF7E4FB801B374B9842F4D954
:100AA0000320C3E7334A12689201DED40120BDE778
:100AB000304A526BD203D8D40120B7E72D4B5A6885
:100AC0000C231340042B23D0FFF7CAFB801B2A4BB7
:100AD0009842F3D90320A9E7264B5A680C23134008
:100AE000082B15D0FFF7BCFB801B234B9842F3D992
:100AF00003209BE71F4B5A680C2313400C2B07D095
:100B0000FFF7AEFB801B1C4B9842F3D903208DE707
:100B1000174B1A6801231340A3420BD914490B68E1
:100B20000122934323430B600B681A40A24201D079
:100B300001207BE72B685B0706D50E4A53680F49F7
:100B40000B40E9680B435360FFF712FF094B5A68EB
:100B500012090F2313400A4AD35CD840094B18608E
:100B6000002001F0B7FD002060E701205EE7C046ED
:100B7000002002400010024088130000FFF8FFFF31
:100B8000843B00080C000020014B18687047C046E9
:100B90000C00002010B5FFF7F7FF044B5A68120A4B
:100BA00007231340024AD35CD84010BD0010024016
:100BB000943B000810B5072303600A4B5C680322CE
:100BC000224042605C68F022224082605B68E02242
:100BD000D2001340C360044B1A68012313400B601A
:100BE00010BDC046001002400020024030B5036A2C
:100BF000012293430362036A426884697325AC430C
:100C00000D682C430225AB438D682B43114DA84240
:100C100005D0114DA84202D0104DA84205D108259B
:100C2000AB43CD682B430425AB430A4DA84205D006
:100C3000094DA84202D0094DA84205D1084D2A40CD
:100C40004D692A438D692A43426084614A68426340
:100C5000036230BD002C01400044014000480140C7
:100C6000FFFCFFFF70B5036A184A13400362036A72
:100C70004268C4697325AC430E682643144C234074
:100C80008C6824022343134CA04216D0114CA0427E
:100C900005D0114CA04202D0104CA04207D1104CFC
:100CA00014404A69120122438C6925012A4342609B
:100CB000C6614A68C263036270BD0A4C1C40CB68BF
:100CC0001B022343084C2340E0E7C046FFFEFFFF22
:100CD000FFFDFFFF002C014000440140004801409F
:100CE000FFCFFFFFFFF7FFFFFFFBFFFF30B5036AFA
:100CF000114A13400362026A4368C4690F4D2C40D5
:100D00000D682D022C430E4D15408A6812032A43AC
:100D10000C4DA84205D00C4DA84202D00B4DA84264
:100D200004D10B4D2B404D69AD012B434360C46191
:100D30004B680364026230BDFFEFFFFFFF8CFFFFD3
:100D4000FFDFFFFF002C014000440140004801404C
:100D5000FFBFFFFF0368DA6801210A43DA60026817
:100D600013680B431360002070477047704770474B
:100D7000704710B5040003681A6992070FD5DA6846
:100D800092070CD5032252421A61012303770368AC
:100D90009B699B0763D0FFF7E9FF00232377236854
:100DA0001A69520712D5DA6852070FD50522524246
:100DB0001A610223237723689A69C0239B001A4291
:100DC00053D02000FFF7D2FF0023237723681A694E
:100DD000120710D5DA6812070DD5092252421A619E
:100DE000042323772368DB699B0745D02000FFF7A6
:100DF000BDFF0023237723681A69D20612D5DA686B
:100E0000D2060FD5112252421A6108232377236894
:100E1000DA69C0239B001A4235D02000FFF7A6FFF5
:100E20000023237723681A69D20702D5DA68D2072C
:100E300030D423681A69120602D5DA68120630D453
:100E400023681A69520602D5DA68520630D423683C
:100E50001A69920602D5DA68920630D410BDFFF7FF
:100E600084FF2000FFF783FF97E72000FFF77DFF57
:100E70002000FFF77CFFA7E72000FFF776FF2000A8
:100E8000FFF775FFB5E72000FFF76FFF2000FFF7C2
:100E90006EFFC5E7022252421A61200001F0E4FA17
:100EA000C7E7812252421A61200000F0F4F9C7E737
:100EB000412252421A612000FFF75AFFC7E7212260
:100EC00052421A61200000F0E5F9C7E703681E4AA4
:100ED000904206D08022D205904202D01B4A904216
:100EE00003D1702293434A681343174A90420FD0AC
:100EF0008022D20590420BD0144A904208D0144A66
:100F0000904205D0134A904202D0134A904203D136
:100F1000124A1340CA681343802293434A69134319
:100F200003608B68C3620B688362074B984205D0ED
:100F3000084B984202D0084B984201D10B690363D9
:100F4000012343617047C046002C0140000400406B
:100F5000002000400044014000480140FFFCFFFF2A
:100F600070B5041E14D03D23C35C002B0AD03D2570
:100F700002236355211D2068FFF7A8FF0123635555
:100F8000002070BD3C330022C25401F011FBEEE79B
:100F90000120F6E770B5041E14D03D23C35C002B7E
:100FA0000AD03D2502236355211D2068FFF78EFFDF
:100FB00001236355002070BD3C330022C25401F070
:100FC000E1FAEEE70120F6E770B5036A10229343D9
:100FD0000362036A42688469164D2C400D682D0235
:100FE00025432024A3438C6824012343124CA042B0
:100FF00016D0114CA04205D0104CA04202D0104C8B
:10100000A04207D10F4C14404A69920022438C69D8
:10101000A6003243426085614A688263036270BD04
:101020008024A3431C00CB681B0123434024A3431B
:10103000DFE7C046FF8CFFFF002C01400044014069
:1010400000480140FFF3FFFF70B504000D003C2392
:10105000C35C012B69D03C230121C1540133013110
:10106000C154042A37D019D9082A4AD00C2A2AD1C7
:1010700029000068FFF73AFE2268D16980231B012E
:101080000B43D3612268D36929490B40D36121689E
:10109000CB692A6912021343CB6114E0002A12D1F2
:1010A00029000068FFF7A2FD2268936908210B431D
:1010B00093612268936904398B4393612268936931
:1010C00029690B4393613D230122E254013B002235
:1010D000E254002070BD29000068FFF775FF226808
:1010E000916980231B010B43936122689369104926
:1010F0000B40936121688B692A69120213438B614B
:10110000E1E729000068FFF7ADFD2268D3690821F7
:101110000B43D3612268D36904398B43D3612268BE
:10112000D36929690B43D361CDE70220D2E7C046DA
:10113000FFFBFFFF10B501248C40036AA343036249
:10114000036A8A401A43026210BD000010B5040011
:1011500001220068FFF7EEFF23680A4A934205D098
:10116000094A934202D0094A934204D1596C802221
:1011700012020A435A642268136801210B43136068
:10118000002010BD002C01400044014000480140F7
:1011900010B504248C40036AA3430362036A8A40A7
:1011A0001A43026210BD10B5040004220068FFF764
:1011B000EFFF2268516C80231B020B4353642268AB
:1011C000136801210B431360002010BDF0B53C23D0
:1011D000C35C012B1ED03C22012585543D240223F3
:1011E0000355066873687027BB43736006687368AD
:1011F0000F683B4373600668B3688027BB43B360E6
:101200000668B36849680B43B360055500238354EF
:101210000020F0BD0220FCE770B53C23C35C012B2D
:1012200028D03C22012585543D2402230355124B2E
:10123000CE6833408E683343104E33404E6833439C
:101240000F4E33400E6833430E4E33400E69334326
:101250000D4E33404E6933430C4E334089690B4386
:101260000B4E33400B4301684B64055500238354F8
:10127000002070BD0220FCE7FFFCFFFFFFFBFFFF2B
:10128000FFF7FFFFFFEFFFFFFFDFFFFFFFBFFFFFE6
:10129000FF7FFFFF7047704770B5040083680269E5
:1012A000134342691343C269134301680A686048E3
:1012B000024013430B60226853685E490B40E168AB
:1012C0000B435360A269236A1A4321688B685A480A
:1012D000034013438B602568584B9D4220D0584BE8
:1012E0009D4231D0102380221202E16991422FD019
:1012F000022B00D180E000D86EE0042B00D187E003
:10130000082B00D092E06168480880231B029C46AD
:101310006044FEF7F9FE0004000CE860002040E0A5
:10132000484B1A6B03231340012B09D0002B05D027
:10133000022B07D0032B09D01023D4E70023D2E7D8
:101340000423D0E70823CEE70023CCE70223CAE733
:10135000022B27D00FD9042B2FD0082B39D163684B
:10136000580880235B029C4660446168FEF7CCFE0F
:1013700083B200200CE0002B2BD1FFF70BFC4000C8
:1013800063685B08C0186168FEF7BEFE83B2002088
:101390000F22190091435B10083A13400B43226857
:1013A000D36070BD63685808274B9C4660446168F1
:1013B000FEF7AAFE83B20020EAE7FFF7D9FA400061
:1013C00063685B08C0186168FEF79EFE83B2002068
:1013D000DEE701200023DBE7002B27D1FFF7DAFB54
:1013E00063685B08C0186168FEF78EFE236800041E
:1013F000000CD8600020D4E761684808134B9C4675
:101400006044FEF781FE0004000CE8600020C8E79D
:10141000FFF7AEFA63685B08C0186168FEF774FEF8
:1014200023680004000CD8600020BAE70120B8E768
:10143000F369FFEFFFCFFFFFFFF4FFFF003801402C
:1014400000440040001002400024F40000127A0022
:10145000436ADB0706D5026853682C490B40816A52
:101460000B435360436A9B0706D5026853682849BB
:101470000B40C16A0B435360436A5B0706D50268A1
:10148000536824490B40016B0B435360436A1B07AD
:1014900006D50268536820490B40416B0B435360EB
:1014A000436ADB0606D5026893681C490B40816BD2
:1014B0000B439360436A9B0606D5026893681849FC
:1014C0000B40C16B0B439360436A5B060BD502680C
:1014D000536814490B40016C0B43536080235B033A
:1014E000026C9A420AD0436A1B0606D5026853680A
:1014F0000D490B40816C0B43536070470268536881
:101500000A490B40416C0B435360ECE7FFFFFDFFC2
:10151000FFFFFEFFFFFFFBFFFF7FFFFFFFEFFFFF70
:10152000FFDFFFFFFFFFEFFFFFFFF7FFFFFF9FFF63
:10153000F0B5C64600B506000C0017009846069D9B
:101540003368DB6923401B1B5A425341BB421ED107
:101550006B1CF5D0002D05D0FEF782FE4346C01A65
:10156000A842EDD9326813680B490B40136032680A
:101570009368A331FF318B43936020236922B354D6
:101580000132B35448330022F254032000E000201B
:1015900004BC9046F0BDC0465FFEFFFFF0B585B0CD
:1015A00004000E0017001D006923C35C202B59D1D5
:1015B00000295AD0002A5AD080235B0182689A42BF
:1015C00013D06823E35C012B53D068230122E2543B
:1015D0000023E36669332032E254FEF741FE0390B4
:1015E0005023E7520233E7520AE00369002BE8D1A7
:1015F000CB07E6D5012036E0337822681385013623
:101600005223E35A9BB2002B1CD05222A35A013B17
:101610009BB2A3520095039B002280212000FFF77C
:1016200087FF002827D180235B01A2689A42E3D17B
:101630002369002BE0D13388DB05DB0D226813859D
:101640000236DDE70095039B002240212000FFF7D2
:101650006FFF002811D169232022E254013B0022B0
:10166000E25400E0022005B0F0BD0120FBE70120BC
:10167000F9E70220F7E70320F5E70320F3E700008E
:1016800030B583B004000023C366FEF7E9FD050012
:101690002368174A93420AD020236922A3540132B7
:1016A000A35448330022E254002003B030BD1B682D
:1016B0001B0710D423681B685B07EDD580210D4BF9
:1016C00000932B000022C9032000FFF731FF002800
:1016D000E2D00320E9E78021064B009303000022BB
:1016E00089032000FFF724FF0028E3D00320DCE774
:1016F00000380140FFFFFF0110B5041E30D0692300
:10170000C35C002B22D069232422E2542268136890
:1017100001218B4313602000FFF7BEFD012814D088
:10172000636A002B18D1226853680E490B4053603E
:10173000226893682A218B439360226813682939B1
:101740000B4313602000FFF79BFF10BD683300229E
:10175000C25400F08BFFD6E72000FFF779FEE2E7E6
:101760000120F2E7FFB7FFFF842801D00330704764
:101770000020FCE710B500F0A1F9002010BDF0B585
:1017800085B00D004668076804690823C05EFFF74E
:10179000EBFFA2B203AB019300902B0039003000A5
:1017A00000F05CF9012802D1039805B0F0BD0020DB
:1017B000FBE710B5002800D1013000F093FA0020BB
:1017C00010BD030008334360012252428260C360AF
:1017D000036100230360704700230361704743687F
:1017E0004B609A688A609A685160996008610368E2
:1017F00001330360704730B50C68631C02D00200EF
:10180000083202E0026904E01A0053681D68A5422C
:10181000FAD953684B6099608A6051600861036827
:101820000133036030BD036942688168916082685A
:10183000416851605A68824205D0002202611A68EC
:10184000501E1860704782685A60F6E7084B9B6A22
:101850001B68002B06D0064B9A6AD268D268526881
:10186000DA627047024B01225242DA62F9E7C0465F
:101870009000002010B50400006B00F03FFC200039
:1018800000F03CFC10BD0000F0B583B00090019367
:10189000089C0A9E1D4B9C4662449200336B9C46FA
:1018A000624407239A43170000230F2B09D8C81856
:1018B0000578F218343215700278002A01D001330D
:1018C000F3E743230022F254062C00D90624F462E5
:1018D00074640025B564301DFFF77EFF30001830BA
:1018E000FFF77AFF366107231C1BB4617662F5644B
:1018F0004933F554019A0099380000F0A3FA30609A
:10190000099B002B00D01E6003B0F0BDFFFFFF3F1E
:1019100070B5002407E0A3001B1998000F4BC018F6
:10192000FFF74FFF0134062CF5D90D4C2600303659
:101930003000FFF746FF250044352800FFF741FF40
:1019400020001430FFF73DFF20005830FFF739FF2B
:101950002000FFF736FFA662E56670BD300100206B
:101960009000002010B5040000F08AFA1F4B1A6F97
:1019700001321A675B6F002B0CD01C4B9B6F002B46
:101980000DD11A4B5B6FDB6AE26A934207D8174BA3
:101990005C6704E0154B5C671B6F012B1FD0134A7B
:1019A000D36F0133D367E26A114B1B689A4201D9A6
:1019B0000F4B1A60211D93009B1898000D4BC01807
:1019C000FFF70DFF00F068FA084B9B6F002B05D066
:1019D000064B5B6FDA6AE36A9A4203D310BDFFF7E6
:1019E00097FFDCE700F040FAF8E7C04690000020DF
:1019F000100100203001002070B504000D00154BCF
:101A00005E68154B586F0430FFF70DFF631C11D053
:101A10003419114B5B6F5C60A64213D80E4DA86A57
:101A2000696F0431FFF7E7FEEB6AA34210D90A4B56
:101A3000DC620DE0002DEBD00748416F0431FFF769
:101A4000CEFE05E0044BD86E596F0431FFF7D3FE8C
:101A500070BDC0461001002090000020F0B587B096
:101A60000490059114001F00900000F0E3FA061E98
:101A70001ED0542000F0DEFA051E15D00663002D9E
:101A800019D00023039302950D9B01930C9B0093A7
:101A90003B00220005990498FFF7F6FE2800FFF7A7
:101AA00061FF012007B0F0BD300000F027FBE6E742
:101AB00001204042F6E701204042F3E700B583B041
:101AC0000F4B103301930023009380220D490E48E1
:101AD000FFF7C4FF012803D0431C0ED003B000BDA4
:101AE00072B60A4B01225242DA6202329A67044B02
:101AF00000225A6000F034FAF0E772B6FEE7C04602
:101B0000100100209C3B0008651D0008900000208B
:101B1000024AD3680133D3607047C04610010020E9
:101B2000F8B5384BDB68002B60D1364B5D6801356A
:101B30005D60002D11D1344B9B6A1B68002B01D0D6
:101B400072B6FEE7304B9A6AD96E9962DA662D4A10
:101B5000536901335361FFF779FE2B4BDB6AAB42CC
:101B60003AD90024284B5B6FDA6A93009B189A00DD
:101B7000264BD358012B3ED901243CE00124224BB3
:101B80009B6A1B68002B29D01F4B9B6ADB68DE68B1
:101B900073689D4227D3371D3800FFF744FEB36AB0
:101BA000002B03D030001830FFF73DFEF26A154BD2
:101BB0001B689A4201D9134B1A6093009B18980036
:101BC000124BC0183900FFF70AFEF26A0E4B5B6F2A
:101BD000DB6A9A42D2D2D2E70024D0E70A4B012234
:101BE0005242DA62BEE7084AD362BBE7054A93690C
:101BF000013393610024034BDB69002B00D00124E7
:101C00002000F8BD100100209000002030010020CD
:101C100070B5314BDB68002B01D172B6FEE700F0E6
:101C20002FF92D4BDA68013ADA60DB68002B4ED1D0
:101C30002A4B1B6F002B04D1002400F02DF920004B
:101C400070BD0024254B5B69002B23D0234B1B6AFE
:101C5000DC6820001830FFF7E6FD251D2800FFF79F
:101C6000E2FDE26A1C4B1B689A4201D91A4B1A60CA
:101C700093009B1898001A4BC0182900FFF7AFFD7E
:101C8000164B5B6FDB6AE26A9A42DBD3124B01228E
:101C9000DA61D7E7002C01D0FFF7D8FD0E4B9C6925
:101CA000002C0CD0FFF73CFF002802D00A4B012289
:101CB000DA61013C002CF5D1074B00229A61064BFA
:101CC000DB69002B05D000F0CFF80124B5E7002434
:101CD000B3E70024B1E7C0461001002090000020C7
:101CE0003001002010B5041E0FD0094BDB68002B1B
:101CF00001D072B6FEE7FFF70BFF00212000FFF7CF
:101D00007BFEFFF785FF002801D100F0ADF810BD84
:101D10001001002070B5114B9B68002B1CD0FFF701
:101D2000F7FE0F4B9C6DFFF773FF002CF3D000F014
:101D3000A7F80B4C636EDD68281DFFF774FD236F59
:101D4000013B2367054A9368013B936000F0A4F8C8
:101D50002800FFF78FFDDEE770BDC04610010020B0
:101D60009000002010B5FFF7D5FF034B1B68012B37
:101D7000F9D900F079F8F6E73001002030B51C4BB6
:101D8000DB68002B03D01A4B0122DA6130BD184BFF
:101D90000022DA611B689A00D2189100154A8A580D
:101DA000002A05D1002B01D0013BF4E772B6FEE713
:101DB000104D9900CA189000281842685468446071
:101DC000C9188A000832521994420BD09A00D218CE
:101DD0009100084A52185268D168074A5167044A6C
:101DE0001360D3E76068142159436A185060EDE727
:101DF000100100203001002090000020034B1B68E0
:101E0000013301D072B6FEE772B6FEE70000002093
:101E10000B4A13681868203080F30988022080F389
:101E20001488BFF36F8F3FBCAE4608BC04BC62B6DB
:101E30001847C046C046C046C046C046C046C04619
:101E40000401002010B5031F802464041C60043BBF
:101E50001960043B02491960143B1A60403810BDF8
:101E6000FD1D000870470000044B802252051A60D7
:101E7000BFF34F8FBFF36F8F7047C04604ED00E094
:101E800072B6044A136801331360BFF34F8FBFF378
:101E90006F8F704700000020064B1B68002B01D19C
:101EA00072B6FEE7013B034A1360002B00D162B615
:101EB0007047C04600000020EFF3108072B67047F4
:101EC000002080F310887047000000000000000030
:101ED000EFF309800E4B1A6820381060F0C04446BA
:101EE0004D4656465F46F0C008B572B6FFF746FF4E
:101EF00062B60CBC116808681030F0C8A046A9464C
:101F0000B246BB4680F309882038F0C81847C0465F
:101F10000401002010B5FFF7CFFF0400FFF700FE1B
:101F2000002803D0034B802252051A602000FFF7DF
:101F3000C8FF10BD04ED00E010B5064B1868FA218B
:101F40008900FEF7E1F80138034B1860034B0722C4
:101F50001A6010BD0C00002014E000E010E000E06A
:101F600010B50A4B1968FF2212040A431A60196857
:101F7000FF2212060A431A60FFF7DEFF044B00221D
:101F80001A60FFF745FFFFF739FFC04620ED00E07C
:101F90000000002010B5114A53071BD0D11D0723A4
:101FA0009943C0231B015B1A9B180A000C490A6065
:101FB00000204860D318083B0724A3438B60586077
:101FC0001860981A50601360C860086180231B066F
:101FD0004B6110BDC0231B01E8E7C046D4010020BF
:101FE000BC01002010B5124B1A68824219D35968FF
:101FF0005C18844203D14068091859601800416890
:102000004418A24211D10A4CA468A2420BD05268D3
:10201000891841601A6812680260984200D01860FE
:1020200010BD1300E0E70460F7E70260F5E7C04683
:10203000BC01002070B50400FFF76AFD2E4B9B68C1
:10204000002B0FD02C4B5B6923424AD1002C0CD0C3
:102050000834630709D007239C430834234204D083
:1020600072B6FEE7FFF796FFECE7002C3BD0224B61
:102070001B69A34239D3204B1D6801E02B001500DA
:102080006A68A24202D22A68002AF7D11A4A9268E4
:10209000AA422CD01E6808362A681A606B681B1B7F
:1020A000102B08D92819420701D072B6FEE7436009
:1020B0006C60FFF797FF69680F4A13695B1A136139
:1020C000D268934201D20C4AD3600B4B5B690B433D
:1020D0006B6000232B60FFF79BFD730709D072B67E
:1020E000FEE70026F7E70026F5E70026F3E70026DF
:1020F000F1E7300070BDC046BC01002070B500287B
:1021000020D00500083D6B680F4A52691A4201D180
:1021100072B6FEE7010008390968002901D072B6DD
:10212000FEE70838040093434360FFF7F1FC63685F
:10213000054A11698C46634413612800FFF752FF7A
:10214000FFF766FD70BDC046BC01002010B588B029
:102150001422002103A800F0F6FB174B59698020D8
:10216000C003014359615A6902400092009A5969BB
:1021700080208002014359615A6902400192019A0C
:102180005A698021C9020A435A615B690B40029374
:10219000029B0A4C002208212000FEF761F9082367
:1021A0000393073B049300230593069303A92000A0
:1021B000FEF796F808B010BD001002400004004879
:1021C00010B50948094B036096231B0243600023A6
:1021D0008360C36003610C2242618361C361036257
:1021E0004362FFF789FA10BD780E002000440040DA
:1021F00010B50948094B0360E023FF334360002317
:102200008360FA229200C26003614361803383617C
:10221000FEF7A6FE10BDC046F40D002000480140A8
:1022200030B591B0082200210EA800F08CFB1C22D2
:10223000002107A800F087FB1C220021684600F05F
:1022400082FB204D204B2B6007236B600024AC6089
:10225000F933EB600133FF332B616C61AC61280013
:10226000FEF798FE0E940F940EA92800FEF7AEFF1D
:1022700060230793089409940A940B940C940D948A
:10228000002207A92800FEF7DFFE042207A9280084
:10229000FEF7DAFE082207A92800FEF7D5FE009413
:1022A000019402940A230393049480239B010593D1
:1022B000069469462800FEF7AFFF280000F098F961
:1022C00011B030BD380E0020002C014000B589B09F
:1022D0000B4B1B68DA6A0B4B1A600B49684600F01F
:1022E00055FB6846FDF79CFF82B205236946074807
:1022F000FFF754F9FA208000FFF75BFAE8E7C046E1
:10230000F40D0020D40D0020A43B0008780E00201E
:1023100010B50FE0013313490B801BE0124B1B6813
:10232000104A1288DA6208211048FEF79FF80A2046
:10233000FFF73FFA0B4B1B88312B02D80C4A0121C7
:102340005160332B02D90A4A00215160084A526871
:10235000012ADFD0002AE1D1024A1388013B138011
:10236000DCE7C04604000020F40D00200004004813
:10237000D40D002000B593B03022002106A800F053
:10238000E2FA1022002101A800F0DDFA20230593D3
:102390001F3B0D9305A8FEF76DF807230193043B3F
:1023A0000293002303930493012101A8FEF72AFB63
:1023B00013B000BD70B58AB0FDF73AFFFFF7DAFF42
:1023C000FFF7C4FEFFF7FCFEFFF712FFFFF728FF41
:1023D0001F48FEF7BFFC1F4C00212000FEF7B6FE91
:1023E00004212000FEF7B2FE08212000FEF7AEFE19
:1023F00000212000FEF7D7FE04212000FEF7D3FEC7
:1024000008212000FEF7CFFE236805225A639A6355
:10241000DA6305A8104C0300220062CA62C322CA14
:1024200022C30021FFF7ABF90C4B1860684602008D
:1024300014342ACC2AC20ACC0AC20021FFF79FF921
:10244000074B1860074800F087FAFFF793F9FEE79B
:10245000F40D0020380E00205C3B0008F00D002039
:10246000340E0020B03B000810B504002E4B02686B
:102470009A4204D022682D4B9A4203D010BDFDF73A
:10248000E7FEF7E72A4B5A68062A46D89300294AFE
:10249000D3589F46284B1B68C8225A63643A9A63F4
:1024A000633ADA63224A536801335360062B02DD34
:1024B000130001225A6008212048FDF7D7FFDDE70D
:1024C0001D4B1B6801225A6363329A636432DA63DC
:1024D000E8E7194B1B6864225A63633A9A63C73270
:1024E000DA63DFE7144B1B6864225A6364329A6331
:1024F000C73ADA63D6E7104B1B6801225A63C7322A
:102500009A63643ADA63CDE70B4B1B68C8225A63BF
:10251000C73A9A636332DA63C4E70A230722084999
:102520000848FFF73BF8BDE7004401400048014080
:1025300004000020403B0008380E00200004004842
:10254000CC3B0008780E002000B583B00C4B996995
:1025500001221143996199690A400092009ADA694F
:10256000802149050A43DA61DB690B400193019B35
:102570000220002203214042FDF778FE03B000BD97
:102580000010024082B00268074B9A4201D002B0AC
:102590007047064A91698020000101439161936967
:1025A00003400193019BF2E7002C01400010024020
:1025B00000B583B002680C4B9A4201D003B000BD55
:1025C0000A4A91698020C0020143916193690340E6
:1025D0000193019B002203211620FDF747FE1620E0
:1025E000FDF774FEEAE7C0460048014000100240D3
:1025F00010B588B004001422002103A800F0A3F94C
:102600002268174B9A4201D008B010BD154B59698A
:1026100080208002014359615A6902400192019A67
:102620005A698021C9020A435A615B690B400293CF
:10263000029BF023DB000393022404940794902070
:1026400003A9C005FDF74CFE032303930494002364
:1026500005930693079403A90348FDF741FED3E7CA
:10266000002C0140001002400004004810B588B062
:1026700004001422002103A800F065F92268124B1F
:102680009A4201D008B010BD104BD9698022920245
:102690001143D961D96911400191019959691143D7
:1026A00059615B691A400292029B094B0393022312
:1026B000049301330693023B0793902003A9C005BE
:1026C000FDF70EFEDEE7C046004400400010024069
:1026D0000480000000B587B0010000221520FDF73E
:1026E000C5FD1520FDF7F2FD134A91698020800297
:1026F00001439161936903400093009B01A902A8E3
:10270000FEF758FAFEF746FA0C49FDF7FDFC431EAA
:102710000B480C4A02600C4AC2604360002303610C
:102720008360FEF71DFC002802D0012007B000BD29
:102730000348FEF70FFBF9E70010024040420F008C
:10274000E80E002000440140E70300007047FEE768
:1027500010B50248FEF70DFB10BDC046E80E002084
:1027600010B50248FEF705FB10BDC046F40D002071
:1027700070B50D001600002404E000E000BF2870D2
:1027800001340135B442F8DB300070BD70B516007D
:10279000002405E04D1C087800E000BF013429004A
:1027A000B442F7DB300070BD10B503000B4A12686D
:1027B000002A08D0094A1068C3186A46934206D80E
:1027C000064A136010BD054A05491160F2E700F0A2
:1027D00087F80C23036001204042F3E7DC0D002062
:1027E000300F002001204042704780239B014B6046
:1027F000002070470120704700207047114B1A6875
:1028000001210A431A605A680F4802405A601A6848
:102810000E4802401A601A680D4802401A605A6851
:102820000C4802405A60DA6A0F208243DA621A6B5F
:10283000094802401A635A6B8A435A6300229A601D
:102840007047C046001002400CB8FF08FFFFF6FEBC
:10285000FFFFFBFFFFFFC0FF2CFEFFFF1348854675
:1028600013480168090E134A914205D112481349D1
:10287000016013481349016013481449144A0023A6
:1028800002E0D458C4500433C4188C42F9D3114A1E
:10289000114C002301E013600432A242FBD3FFF786
:1028A000ADFF00F023F8FFF785FDFEE700180020DC
:1028B000040000001F00000018100240010000008A
:1028C0000000014000000000000000207400002013
:1028D0008C3C0008740000202C0F0020FEE7000054
:1028E000014B18687047C0461000002070B50026E4
:1028F0000C4D0D4C641BA410A64209D1002601F01A
:1029000003F90A4D0A4C641BA410A64205D170BD00
:10291000B300EB5898470136EEE7B300EB58984701
:102920000136F2E7843C0008843C0008843C00083F
:10293000883C0008002310B59A4200D110BDCC5C41
:10294000C4540133F8E703001218934200D17047D2
:1029500019700133F9E700000FB40B4B13B51C6875
:10296000002C05D0A369002B02D1200000F070F8E4
:1029700005AB049AA1682000019300F0E3FA16BCAD
:1029800008BC04B01847C046100000200EB400B5C3
:102990000B499CB01DAB0290069007910491094829
:1029A000094904CB0591006802A9019300F0A4F93C
:1029B0000023029A13701CB008BC03B01847C0462D
:1029C000FFFFFF7F100000200802FFFF002310B56B
:1029D000040003604360836081814366C2810361B8
:1029E00043618361190008225C30FFF7ACFF054B9F
:1029F00024626362044BA362044BE362044B2363CF
:102A000010BDC04681340008A9340008E134000834
:102A10000D35000810B5024900F08CF810BDC04615
:102A20001138000870B568254A1E55430E0029006C
:102A3000743100F0A1F8041E08D000212A000160C2
:102A400046600C30A0606832FFF77DFF200070BD4B
:102A5000836913B50400002B28D18364C364036524
:102A6000134B144A1B6882620193984201D10123DF
:102A70008361200000F020F86060200000F01CF866
:102A8000A060200000F018F80022E06004216068D7
:102A9000FFF79CFF01220921A068FFF797FF0222A0
:102AA0001221E068FFF792FF0123A36113BDC04626
:102AB000EC3B0008152A0008F8B51C4B07001E68FF
:102AC000B369002B02D13000FFF7C2FF4836B4686B
:102AD0007368013B04D53368002B07D03668F6E7EE
:102AE0000C22A55E002D0DD06834F2E704213800D9
:102AF000FFF798FF30600028F0D10C2304003B6002
:102B00002000F8BD20000A4B656625606560A56061
:102B1000E36025616561A561082229005C30FFF74B
:102B200012FF6563A563A564E564E9E7EC3B000873
:102B30000100FFFFF7B504000700002601914834AB
:102B4000002C01D13000FEBD6368A5680093009B96
:102B5000013B009301D52468F2E7AB89012B08D92A
:102B60000E22AB5E013304D029003800019B984748
:102B700006436835EBE70000032370B5CD1C9D4389
:102B8000083506000C2D1ED20C25A9421DD8300098
:102B900000F008FF254A14682100002919D1244CAF
:102BA0002368002B03D1300000F058FC206029007E
:102BB000300000F053FC431C2BD10C233000336059
:102BC00000F0F1FE03E0002DDFDA0C23336000207B
:102BD00070BD0B685B1B19D40B2B03D90B60CC1891
:102BE000256003E04B688C420DD11360300000F08B
:102BF000DAFE200007220B30231D9043C31AE7D0D2
:102C00005A42E250E4E763600C00EFE70C004968C9
:102C1000C3E70323C41C9C43A042E1D0211A300027
:102C200000F01CFC431CDBD1C7E7C046E40D0020CC
:102C3000E80D0020F0B58E6885B007000C00039207
:102C400001939E423CD890238A89DB001A4234D0FB
:102C50000325096923685B1A0293636902985D433F
:102C6000EB0F5D19019B6D1001331B18AB4200D9AE
:102C70001D00530532D529003800FFF77DFF061EE1
:102C800009D10C233B6040230120A2894042134319
:102C9000A38105B0F0BD029A2169FFF74BFEA3891D
:102CA000144A1A4080231343A381029B2661F6181D
:102CB00026606561019EED1AA560019B9E4200D9C8
:102CC000019E32000399206800F059FEA36800209D
:102CD0009B1BA36023689E192660DAE72A00380050
:102CE00000F0ACFE061EE0D12169380000F05CFE69
:102CF000C7E7C0467FFBFFFFF0B5A1B003901D0002
:102D00008B890F0016001B0611D50B69002B0ED105
:102D10004021FFF731FF38603861002805D10C23CE
:102D2000039A0138136021B0F0BD40237B6100237A
:102D300008AC6361203363761033A37607953500C2
:102D40002B78002B01D0252B46D1AB1B05930CD043
:102D5000320039000398FFF76DFF431C00D1AEE04D
:102D60006269059B9446634463612B78002B00D114
:102D7000A5E0012200235242626004A95432521895
:102D80006E1C2360E360A3601370A3653178052295
:102D9000534800F0E9FD751C00281FD12268D306B6
:102DA00004D5532304A95B1820211970130704D5F7
:102DB000532304A95B182B21197033782A2B16D0C2
:102DC000350000210A20E3682A786E1C303A092A6F
:102DD0004ED9002918D010E00135B1E7404B2268E8
:102DE000C01A01238340134323602E00CEE7079BC4
:102DF000191D1B680791002B01DB0B9304E05B425C
:102E0000E3600223134323602B782E2B0AD16B78C7
:102E10002A2B35D1079B02351A1D1B680792002B00
:102E20002BDB09932F4E29780322300000F09CFD04
:102E3000002806D04023801B8340226801351343BD
:102E400023602978062228486E1C217600F08CFD2C
:102E500000283CD0254B002B25D10722079B0733A8
:102E60009343083307936369049A9B18636166E789
:102E7000434301219B183500A6E701235B42D0E7BD
:102E800000230A201A000135636029786E1C30394E
:102E9000092903D9002BC5D00992C3E74243012376
:102EA00052183500F1E707AB00933A00104B2100B0
:102EB000039800E000BF0490049B0133D3D1BB8989
:102EC0000D985B0600D42EE7012040422BE707ABAC
:102ED00000933A00064B2100039800F0B7F9EAE7A7
:102EE000503C0008563C00085A3C00080000000016
:102EF000352C0008936810B5013B9360002B04DA71
:102F00009469A34207DB0A2905D01368581C106096
:102F10001970080010BD00F0FFFA0100F9E7F8B5DC
:102F200006000F001400D518AC4201D1002007E0C4
:102F300021783A003000FFF7DDFF0134431CF3D164
:102F4000F8BD0000F0B5A1B003900F0016001D0001
:102F5000002805D083690593002B01D1FFF778FD88
:102F60007B4B9F425CD1039B5F68BB891B0763D58A
:102F70003B69002B60D0002308AC6361203363768B
:102F80001033A376079535002B78002B01D0252B25
:102F90005CD1AB1B05930CD0320039000398FFF7CE
:102FA000BEFF431C00D1C4E06269059B94466344A4
:102FB00063612B78002B00D1BBE001220023524239
:102FC000626004A9543252186E1C2360E360A3604F
:102FD0001370A365317805225E4800F0C5FC751CAE
:102FE000002835D12268D30604D5532304A95B18E1
:102FF00020211970130704D5532304A95B182B2132
:10300000197033782A2B2CD0350000210A20E36870
:103010002A786E1C303A092A64D900292ED026E07D
:103020004D4B9F4202D1039B9F689EE74B4B9F42B3
:103030009BD1039BDF6898E73900039800F0D6FA2C
:10304000002898D00120404221B0F0BD01359BE717
:10305000404B2268C01A01238340134323602E0093
:10306000B8E7079B191D1B680791002B01DB0B9329
:1030700004E05B42E3600223134323602B782E2B92
:103080000AD16B782A2B35D1079B02351A1D1B6894
:103090000792002B2BDB0993314E29780322300055
:1030A00000F062FC002806D04023801B8340226889
:1030B000013513432360297806222A486E1C2176A5
:1030C00000F052FC00283AD0274B002B25D10722D4
:1030D000079B07339343083307936369049A9B184C
:1030E000636150E7434301219B18350090E70123BA
:1030F0005B42D0E700230A201A000135636029787B
:103100006E1C3039092903D9002BC5D00992C3E7B9
:103110004243012352183500F1E707AB00933A0010
:10312000124B2100039800E000BF0490049B013380
:10313000D3D1BB895B0600D584E70D9884E707AB44
:1031400000933A00094B2100039800F07FF8ECE768
:10315000103C0008503C0008303C0008F03B0008E0
:10316000563C00085A3C0008000000001F2F0008D1
:10317000F7B5150001938A680B6900900C00934223
:1031800000DA130022002B6043321278002A01D0AB
:1031900001332B6023689B0602D52B6802332B601A
:1031A000062723681F4027D0230043331B785A1E6D
:1031B00093412268920630D422000199433200984C
:1031C000089EB047431C25D0062320682A68E16882
:1031D00003400025042B03D18D1AEB43DB171D4060
:1031E000A3682269934201DD9B1AED180027BD42B6
:1031F00020D1002010E00137E3682A689B1ABB4207
:10320000D2DD22000123193201990098089EB047AF
:10321000431CF0D101204042FEBD3020E118433173
:10322000087021005A1C45310978A2184332023334
:103230001170C1E7220001231A3201990098089EFB
:10324000B047431CE6D00137D1E70000F0B589B0A4
:1032500004920A0043320593039002920A7E0C0006
:103260000E9B6E2A00D186E01FD8632A33D008D87F
:10327000002A00D18CE0582A4DD0250042352A7012
:1032800030E0642A01D0692AF7D1196825680A1D3F
:10329000280629D508681A60002803DA2D23029A27
:1032A000404213706B4E0A274FE0732A74D008D83F
:1032B0006F2A1FD0702AE0D1202209680A432260B9
:1032C00003E0752A16D0782AD7D12200782145321A
:1032D0001170614E22E025001A684235111D1960F7
:1032E00013682B70012365E008681A606906D3D55E
:1032F00000B2D1E719682568081D186008682E0615
:1033000005D5544E08276F2A1BD00A2719E06D06F1
:10331000F7D580B2F5E745314E4E0A70186822683D
:10332000011D00681960150621D5D30702D5202399
:103330001A4322601027002803D1202322689A43D1
:1033400022602300002243331A706368A360002BBD
:1033500058DB0422216891432160002854D1029D4A
:10336000002B5AD02500337842352B7055E0550696
:10337000DBD580B2D9E71A680D68101D496918605D
:1033800013682E0601D5196002E06D06FBD5198081
:103390000023029D23614FE01A68111D1960156812
:1033A00000216268280000F0DFFA002801D0401BED
:1033B0006060636823610023029A13703CE0236914
:1033C0002A0004990398059DA847431C3ED0236812
:1033D0009B0715D4079BE068984239DA180037E05C
:1033E00022000123193204990398059EB047431C1B
:1033F0002CD00135E368079A9B1AAB42F0DCE9E771
:103400000025F7E70028ADD0029D3900FCF702FF48
:10341000735C013D2B700028F7D1082F09D1236878
:10342000DB0706D563682269934202DC3023013D45
:103430002B70029B5B1B2361059B07AA0093210055
:10344000049B0398FFF794FE431CB8D1012040422F
:1034500009B0F0BD613C0008723C0008002370B563
:10346000064C050008002360FFF79EF9431C03D1BA
:103470002368002B00D02B6070BDC046280F0020B1
:1034800070B50C000E25495F00F0FEFA002803DB42
:10349000636D1B18636570BDA389024A1340A38145
:1034A000F9E7C046FFEFFFFFF8B51F008B89050065
:1034B0000C001600DB0505D50E23C95E0022022391
:1034C00000F0D2F9A389054A28001340A3813200F5
:1034D0000E23E15E3B0000F075F8F8BDFFEFFFFF43
:1034E00070B50C000E25495F00F0BEF9A389421C9F
:1034F00003D1054A1340A38170BD802252011343BA
:10350000A3816065F8E7C046FFEFFFFF10B50E230B
:10351000C95E00F0E1F810BDF8B505000E0014001A
:10352000002804D08369002B01D1FFF791FA224BC8
:103530009C422DD16C68A369A360A3891B0731D578
:103540002369002B2ED023682269F7B2981A636989
:10355000F6B2834205DC2100280000F059F900286A
:1035600026D1A3680130013BA36023685A1C226066
:103570001F706369834204D0A389DB071AD50A2E22
:1035800018D12100280000F043F9002812D00FE0E4
:103590000A4B9C4201D1AC68CDE7094B9C42CAD191
:1035A000EC68C8E72100280000F020F80028CAD005
:1035B000012676423000F8BD103C0008303C00087F
:1035C000F03B000870B50500080011000022064C11
:1035D00022601A00FFF7DAF8431C03D12368002B9E
:1035E00000D02B6070BDC046280F0020364B70B550
:1035F0001D6806000C00002D05D0AB69002B02D120
:103600002800FFF725FA314B9C420FD16C680C2340
:10361000E25E93B219072DD4D90611D409230120F3
:10362000336037331343A381404270BD284B9C4223
:1036300001D1AC68EBE7274B9C42E8D1EC68E6E7A8
:103640005B0713D5616B002908D0230044339942EE
:1036500002D0300000F0A8F9002363632422A3897C
:103660009343A38100236360236923600823A28915
:103670001343A3812369002B0BD1A0218022A389AE
:10368000890092000B40934203D02100300000F0EB
:1036900027F90123A289134011D00023A360636995
:1036A0005B42A361002023698342BED10C23E25E0A
:1036B0001306BAD540231343A3810138B5E7920717
:1036C00000D46369A360EDE710000020103C0008FF
:1036D000303C0008F03B0008002370B5064C0500A4
:1036E00008002360FFF77EF8431C03D12368002BFA
:1036F00000D02B6070BDC046280F0020F7B58A8926
:1037000005000C00130760D44B68002B04DC0B6C25
:10371000002B01DC0020FEBDE76A002FFAD0002359
:103720002E682B6080235B01216A1A4034D0606DC3
:10373000A3895B0706D56368C01A636B002B01D0B1
:10374000236CC01A0200216A00232800E76AB847E8
:10375000A189431C06D12B681D2B30D82B4ADA4097
:10376000D3072CD50023636023692360CB0405D5E0
:10377000431C02D12B68002B00D16065616B2E6069
:103780000029C7D023004433994202D0280000F01A
:103790000BF900206063BEE701232800B847431CF3
:1037A000C6D12B68002BC3D01D2B01D0162B01D105
:1037B0002E60AFE74023A2891343A381ABE74023E8
:1037C0000B430120A3814042A5E70F69002FA1D040
:1037D0000B680F60DB1B01930023920700D14B693C
:1037E000A360019B002B00DC94E7019B3A00216A57
:1037F0002800A66AB047002803DC4023A2891343AF
:10380000DFE7019B3F181B1A0193EAE70100402004
:103810000B6970B505000C00002B01D1002070BDB4
:10382000002804D08369002B01D1FFF711F90B4B5D
:103830009C4209D16C680C22A35E002BEED02100C3
:103840002800FFF75BFFEAE7054B9C4201D1AC681B
:10385000F1E7044B9C42EED1EC68ECE7103C000829
:10386000303C0008F03B000870B50500080011006E
:103870000022064C22601A00FEF7BEFF431C03D153
:103880002368002B00D02B6070BDC046280F00209D
:1038900070B50E001D000E23C95E96B014000029FD
:1038A00007DA00232B60B3891B0611D48023DB00C9
:1038B0000FE06A4600F0FCF80028F2DBF022019BE2
:1038C00012021340054A9B185A4253412B60EDE700
:1038D00040230020236016B070BDC04600E0FFFF0B
:1038E000F7B502268B8905000C00334206D0230071
:1038F00047332360236101236361F7BD01AB6A464F
:10390000FFF7C6FF009907002800FFF735F90028E8
:1039100008D10C22A35E9A05EFD4032293431E43E1
:10392000A681E4E70F4BAB628023A289206013439A
:10393000A381009B20616361019B002B0DD00E23AE
:10394000E15E280000F0C6F8002806D00322A38913
:1039500093431A0001231343A381A0893843A08114
:10396000CBE7C046152A0008C9B28218904201D19F
:103970000020704703788B42FBD00130F6E710B58A
:10398000884202D98B18984203D3002307E08B5C4E
:103990008354013AFBD210BDCC5CC45401339A422B
:1039A000FAD1F8E77047704770B50500002910D0CC
:1039B0000C1F2368002B00DAE4182800FFF7F2FF41
:1039C0001D4A1368002B05D1636014602800FFF7BF
:1039D000EAFF70BDA34209D9216860188342F3D180
:1039E00018685B6841182160EEE713005A68002AE6
:1039F00001D0A242F9D919685818A0420BD1206809
:103A00000918581819608242E0D1106852684118AC
:103A100019605A60DAE7A04202D90C232B60D5E77F
:103A200021686018824203D11068526841182160F1
:103A300062605C60CAE7C046E40D0020F8B507008C
:103A40000D001600002905D11100FFF795F80400BC
:103A50002000F8BD002A03D1FFF7A6FF3400F7E7E6
:103A600000F04AF82C00B042F2D231003800FFF7E3
:103A700083F8041EECD029003200FEF75BFF29001A
:103A80003800FFF791FFE3E770B50500080011006B
:103A90000022064C22601A00FEF76AFE431C03D186
:103AA0002368002B00D02B6070BDC046280F00207B
:103AB000002370B5064C0500080011002360FEF7D6
:103AC00094FE431C03D12368002B00D02B6070BDF3
:103AD000280F0020002370B5064C05000800236065
:103AE000FEF788FE431C03D12368002B00D02B6017
:103AF00070BDC046280F00200B1F1B68181F002B2D
:103B000001DA0B58C0187047F8B5C046F8BC08BCBD
:103B10009E467047F8B5C046F8BC08BC9E46704744
:103B200002030405060708090A0B0C0D0E0F1010FE
:103B30000102030405060708090A0B0C0D0E0F10FD
:103B40001A25000894240008C0240008D224000884
:103B5000E4240008F624000808250008E03B0008DB
:103B6000CD220008000000000000000080000000DE
:103B7000D43B000811230008FDFF000000000000F6
:103B800080000000000000000000000001020304AB
:103B900006070809000000000102030449444C45DF
:103BA000000000004152523D202575200D0000000C
:103BB00048656C6C6F20576F726C642066726F6D15
:103BC000207374617274757000000000736869740A
:103BD0000D00000068656C6C6F576F726C640000BC
:103BE00064656661756C745461736B001400002029
:103BF00000000000000000000000000000000000C5
:103C000000000000000000000000000000000000B4
:103C100000000000000000000000000000000000A4
:103C20000000000000000000000000000000000094
:103C30000000000000000000000000000000000084
:103C40000000000000000000000000000000000074
:103C5000232D302B2000686C4C0065666745464775
:103C600000303132333435363738394142434445F8
:103C70004600303132333435363738396162636467
:043C80006566000075
:043C8400E90000084B
:043C8800C10000086F
:103C8C00AAAAAAAAC80000000100000000127A002B
:103C9C001400002000000000103C0008303C00081C
:103CAC00F03B0008000000000000000000000000D5
:103CBC0000000000000000000000000000000000F8
:103CCC0000000000000000000000000000000000E8
:103CDC0000000000000000000000000000000000D8
:103CEC0000000000000000000000000000000000C8
:043CFC0000000000C4
:040000050800285D6A
:00000001FF
